:100000000C9446000C9463000C9463000C94630001
:100010000C9463000C9463000C9463000C946300D4
:100020000C9463000C9463000C9463000C946300C4
:100030000C9463000C9463000C9463000C946300B4
:100040000C9463000C9463000C9463000C946300A4
:100050000C9463000C9463000C9463000C94630094
:100060000C9463000C9463000C9463000C94630084
:100070000C9463000C9463000C9463000C94630074
:100080000C9463000C9463000C94630011241FBE55
:10009000CFEFD0E1DEBFCDBF12E0A0E0B1E0ECE1F8
:1000A000F1E202C005900D92AA38B107D9F712E02B
:1000B000AAE8B2E001C01D92AD39B107E1F70E9494
:1000C00065000C948C100C940000109A119A189AE8
:1000D0001998FFCF15BA87EF84BB1BBA8AB38ABBC6
:1000E00012BA81B3836081BB10926200E1E6F0E056
:1000F0008081808313B88CE082B908950E94AC059A
:100100008CE00E94D20581E00E94D2050895DF9321
:10011000CF93CDB7DEB7A2970FB6F894DEBF0FBE70
:10012000CDBFDE011196E0E7F1E081E101900D9293
:100130008150E1F7DE015296EFE5F1E081E10190B7
:100140000D928150E1F781E00E94D20580E80E9483
:10015000D205CE0101960E942C0680EC0E94D205A9
:10016000CE0142960E942C068FEB97E2A9E08150C7
:100170009040A040E1F700C0000081E00E94D2055D
:10018000A2960FB6F894DEBF0FBECDBFCF91DF9120
:100190000895AF92BF92CF92DF92EF92FF920F93AA
:1001A0001F93DF93CF93CDB7DEB761970FB6F89467
:1001B000DEBF0FBECDBF7B018C01DE011196EEE4E8
:1001C000F1E081E101900D928150E1F781E00E9420
:1001D000D205C801B70120E030E0A9010E941B0A46
:1001E0009AE0A92EB12CAC0EBD1E87FD2EC08DB796
:1001F0009EB708970FB6F8949EBF0FBE8DBFCDB6C1
:10020000DEB60894C11CD11CEDB7FEB7B282A18244
:1002100080E091E0F60193838283C801B7010E94D8
:100220000B0BF60175836483C801B70120E030E051
:1002300040E251E40E94C1080E940B0BCB016AE02E
:1002400070E00E94470DF6013CC060E070E0CB0119
:10025000A80197010E949008D62E072F182FC92EAB
:10026000EDB7FEB738970FB6F894FEBF0FBEEDBFDF
:10027000EDB6FEB60894E11CF11CB282A1828AE0C0
:1002800091E0F701938382832D2D302F412F5C2D38
:10029000CA01B9010E940B0BF701758364836D2DB0
:1002A000702F812F9C2D20E030E040E251E40E942D
:1002B000C1080E940B0BCB016AE070E00E94470D61
:1002C000F701978386830E94E20D8DB79EB708964B
:1002D0000FB6F8949EBF0FBE8DBFCE0101960E944F
:1002E0002C0661960FB6F894DEBF0FBECDBFCF913E
:1002F000DF911F910F91FF90EF90DF90CF90BF9013
:10030000AF900895AF92BF92CF92DF92EF92FF929B
:100310000F931F93DF93CF93CDB7DEB761970FB6DF
:10032000F894DEBF0FBECDBF7B018C01DE011196BC
:10033000EDE3F1E081E101900D928150E1F780E879
:100340000E94D205C801B70120E030E0A9010E9457
:100350001B0A26E0A22EB12CAC0EBD1E87FD2EC0BE
:100360008DB79EB708970FB6F8949EBF0FBE8DBF8E
:10037000CDB6DEB60894C11CD11CEDB7FEB7B28273
:10038000A18280E091E0F60193838283C801B701E6
:100390000E940B0BF60175836483C801B70120E04E
:1003A00030E040E251E40E94C1080E940B0BCB01F7
:1003B0006AE070E00E94470DF6013CC060E070E02A
:1003C000CB01A80197010E949008D62E072F182F65
:1003D000C92EEDB7FEB738970FB6F894FEBF0FBE23
:1003E000EDBFEDB6FEB60894E11CF11CB282A1820D
:1003F0008AE091E0F701938382832D2D302F412FE6
:100400005C2DCA01B9010E940B0BF701758364834F
:100410006D2D702F812F9C2D20E030E040E251E4C3
:100420000E94C1080E940B0BCB016AE070E00E94A1
:10043000470DF701978386830E94E20D8DB79EB723
:1004400008960FB6F8949EBF0FBE8DBFCE010196E1
:100450000E942C0661960FB6F894DEBF0FBECDBF8A
:10046000CF91DF911F910F91FF90EF90DF90CF9090
:10047000BF90AF900895AF92BF92CF92DF92EF926C
:10048000FF920F931F93DF93CF93CDB7DEB76197A2
:100490000FB6F894DEBF0FBECDBF7B018C01DE012D
:1004A0001196ECE2F1E081E101900D928150E1F7CB
:1004B00080EC0E94D205C801B70120E030E0A9011C
:1004C0000E941B0A36E0A32EB12CAC0EBD1E87FD88
:1004D0002EC08DB79EB708970FB6F8949EBF0FBE7B
:1004E0008DBFCDB6DEB60894C11CD11CEDB7FEB7EA
:1004F000B282A18280E091E0F60193838283C801F9
:10050000B7010E940B0BF60175836483C801B70124
:1005100020E030E040E251E40E94C1080E940B0B51
:10052000CB016AE070E00E94470DF6013CC060E03C
:1005300070E0CB01A80197010E949008D62E072FEA
:10054000182FC92EEDB7FEB738970FB6F894FEBF37
:100550000FBEEDBFEDB6FEB60894E11CF11CB282F1
:10056000A1828AE091E0F701938382832D2D302FC1
:10057000412F5C2DCA01B9010E940B0BF701758355
:1005800064836D2D702F812F9C2D20E030E040E2A0
:1005900051E40E94C1080E940B0BCB016AE070E09D
:1005A0000E94470DF701978386830E94E20D8DB765
:1005B0009EB708960FB6F8949EBF0FBE8DBFCE01B2
:1005C00001960E942C0661960FB6F894DEBF0FBE0E
:1005D000CDBFCF91DF911F910F91FF90EF90DF90F2
:1005E000CF90BF90AF900895AF92BF92CF92DF921D
:1005F000EF92FF920F931F93A0901901B0901A01F0
:10060000C0901B01D0901C01E0901D01F0901E01D4
:1006100000911F0110912001823081F4C801B701BF
:1006200020E030E0A9010E947B0A18166CF5C80191
:10063000B701A60195010E94900810C0C801B7013A
:1006400020E030E04AEF52E40E941B0A87FF1CC002
:10065000C801B701A60195010E946308262F372F14
:10066000482F592F20931D0130931E0140931F01E5
:1006700050932001209315013093160140931701E8
:10068000509318010E9482011F910F91FF90EF90EB
:10069000DF90CF90BF90AF90089550912501409189
:1006A00026013091270120912801823079F460E001
:1006B00070E0CB01DA01F9012B2F3A2F4F2F5E2F7B
:1006C0000E949008562F472F382F292FDA01F90161
:1006D0006B2F742F8F2F922F20918E0230918F02CB
:1006E00040919002509191020E946308262F372F6B
:1006F000482F592F20938E0230938F0240939002FF
:10070000509391020E94C9000895813021F4909A7B
:10071000919A1D9A03C0909891981D9880E0089531
:10072000EF92FF920F931F93DF93CF9300D000D0EF
:10073000CDB7DEB719821A821B821C8280B18095E8
:10074000898389B3809583708A8369817A818B815B
:100750009C810E94AB0A20E030E044EB5EE30E9403
:10076000C1082091920230919302409194025091DD
:1007700095020E9463087B018C017F2D912F20E060
:1007800030E0A9010E944B0A87FF0BC060E070E0D7
:10079000CB012E2D3F2D402F512F0E9490087B0121
:1007A0008C016E2D7F2D802F912F20E030E044E3CF
:1007B00053E40E94EB09181664F460E070E084EBE7
:1007C00093E42E2D3F2D402F512F0E9490087B0146
:1007D0008C016E2D7F2D802F912F0F900F900F90F9
:1007E0000F90CF91DF911F910F91FF90EF9008959F
:1007F000DF92EF92FF920F931F930E949003F62EC9
:10080000072F182FE92E0CC00E949003F62E072FF9
:10081000182FE92E83EF91E00197F1F700C0000057
:100820006091150170911601809117019091180146
:1008300020918E0230918F0240919002509191024E
:100840000E94630820E030E040E751E40E94630822
:100850009B01AC016F2D702F812F9E2D0E947B0A72
:10086000181694F681E00E9485036F2D702F812F5A
:100870009E2D0E943B028FE39DE0A3E081509040BB
:10088000A040E1F700C0000080E00E94850354E131
:10089000D52E18C0DD2011F0DA9408C06F2D702F0E
:1008A000812F9E2D0E943B0244E1D42E0E94900392
:1008B000F62E072F182FE92EA1EEB4E01197F1F7CD
:1008C00000C0000060918A0270918B0280918C02BE
:1008D00090918D02209121013091220140912301BC
:1008E000509124010E9463089B01AC016F2D702F71
:1008F000812F9E2D0E94EB09181664F21F910F9113
:10090000FF90EF90DF900895EF92FF920F931F9367
:100910000E9490037B018C012091990230919A02F0
:1009200040919B0250919C020E94BB09882361F078
:10093000C801B7010E943B02E0929902F0929A022C
:1009400000939B0210939C0260918A0270918B022B
:1009500080918C0290918D02209121013091220191
:1009600040912301509124010E9463089B01AC0136
:10097000C801B7010E94EB09181654F4E0929902DD
:10098000F0929A0200939B0210939C0281E001C0B6
:1009900080E01F910F91FF90EF900895FC0189B3C3
:1009A00080958C7182FF17C090912B01992319F0CB
:1009B00010922B010EC090919802292F2F5F209347
:1009C0009802943268F087EA91E60197F1F700C047
:1009D000000081E02CC091E090932B0110929802CE
:1009E00083FF17C090912A01992319F010922A01D0
:1009F0000EC090919702292F2F5F20939702943277
:100A000068F087EA91E60197F1F700C0000082E004
:100A10000EC091E090932A011092970284FF09C0C2
:100A200080912901882341F01092290183E080837D
:100A3000089581E080932901108280E00895CF928B
:100A4000DF92EF92FF920F931F93DF93CF930F925A
:100A5000CDB7DEB760918E0270918F0280919002C7
:100A6000909191020E94C900198284EF91E0A0E068
:100A7000B0E06E010894C11CD11C1CC0C6010E94CC
:100A8000CE04882379F0813068F0833018F0833009
:100A900049F41BC00E944D0364EFE62E61E0F62E80
:100AA000012D112D83EC99E00197F1F700C00000B2
:100AB000D801C7017C018D010894E108F108010902
:100AC00011090097A105B105C9F660911D0170914A
:100AD0001E0180911F01909120010E9482010E94BD
:100AE00090030E943B020F90CF91DF911F910F91D5
:100AF000FF90EF90DF90CF900895DF93CF930F9208
:100B0000CDB7DEB71982CE0101960E94CE048823AC
:100B1000B1F08981813098F0833028F0833079F406
:100B20000E941F050CC00E94F40260911D0170918B
:100B30001E0180911F01909120010E9482010F905F
:100B4000CF91DF910895AA9A89EF90E00197F1F78C
:100B500000C00000AA9808951F93A8988FE493EC12
:100B60000197F1F700C0000010E315BB00C00000C2
:100B70000E94A30500C0000015BB00C000000E9439
:100B8000A30500C0000015BB00C000000E94A30523
:100B900000C0000080E285BB00C000000E94A305E9
:100BA0001F910895DF93CF930F92CDB7DEB725B392
:100BB000982F9F60206F922395BB00C00000A898DB
:100BC00000C0000089830E94A30596EA9A95F1F778
:100BD00000C095B389818295807F9F70892B85BBEA
:100BE00000C00000A89800C000000E94A305E6EA2B
:100BF000EA95F1F700C00F90CF91DF910895DF9350
:100C0000CF930F92CDB7DEB725B3982F9F60206F9B
:100C1000922395BB00C00000A89A00C00000898301
:100C20000E94A30596EA9A95F1F700C095B38981D1
:100C30008295807F9F70892B85BB00C00000A89A99
:100C400000C000000E94A305E6EAEA95F1F700C0A3
:100C50000F90CF91DF910895CF92DF92FF920F9383
:100C60001F93DF93CF930F92CDB7DEB7F82E0F2DE2
:100C7000192FCC24DD240CC0F80181918F019983B8
:100C80000E94FF0500C000000894C11CD11C99817E
:100C9000AF2DB92FFD0101900020E9F73197EA1B34
:100CA000FB0BCE16DF0640F30F90CF91DF911F9123
:100CB0000F91FF90DF90CF900895EF92FF920F93E6
:100CC0001F93CF93DF93082F192FC0E0D0E0E62EBB
:100CD000FF2408C0F80181918F010E94FF0500C028
:100CE00000002196CE15DF05ACF3DF91CF911F9167
:100CF0000F91FF90EF9008954F925F926F927F92C5
:100D00008F929F92AF92BF92CF92DF92EF92FF921B
:100D10001F93DF93CF93CDB7DEB7A8970FB6F894A4
:100D2000DEBF0FBECDBF6B017C0197FF0BC08DE214
:100D30000E94FF05F094E094D094C094C11CD11C93
:100D4000E11CF11C10E02E010894411C511C2AE00A
:100D5000622E712C812C912C1F5FA12EBB24AA0C1A
:100D6000BB1CA40CB51CC701B601A40193010E94D1
:100D70005A0DF5017183608369017A01C114D104B0
:100D8000E104F10449F70CC0E12FF0E0EE0FFF1F82
:100D9000EC0DFD1D8081805D0E94FF05115004C097
:100DA0006E010894C11CD11C112371F7A8960FB6CF
:100DB000F894DEBF0FBECDBFCF91DF911F91FF90A2
:100DC000EF90DF90CF90BF90AF909F908F907F90EB
:100DD0006F905F904F9008951F936AE070E00E94BB
:100DE000470D182F862F805D0E94FF05812F805DA3
:100DF0000E94FF051F91089580E80E94D205089582
:100E0000CF93DF93C8E2D0E080EC0E94D205219717
:100E1000D9F7DF91CF9108958130910529F4AD9AEA
:100E200085B3806284BB0895009711F4AD98A598AE
:100E30000895A0E0B0E0EFE1F7E00C94AF0DFC0105
:100E4000EA018081823008F438C1DB019C91923044
:100E500008F430C1843059F4943009F02EC19181E6
:100E600011968C911197981709F021C126C19430E1
:100E700009F420C19230B1F4823009F01EC1CA01D8
:100E8000AF0128E0DA010D90AD01DC010D92CD013A
:100E90002150C1F7DB0111968C9111979181892323
:100EA00089830AC1823009F405C1C280D380DB0185
:100EB00012966D907C9013972481358146815781DD
:100EC0001496ED90FD900D911C911797C60186190F
:100ED00097095C0197FF04C0AA24BB24A81AB90A89
:100EE000B0E2AB16B1040CF061C0181619066CF52F
:100EF000370148010A2C04C096948794779467942C
:100F00000A94D2F781E090E0A0E0B0E00A2C04C09F
:100F1000880F991FAA1FBB1F0A94D2F70197A10936
:100F2000B1098E219F21A023B123EE24FF24870144
:100F3000E3940097A105B10519F4EE24FF2487017D
:100F4000E628F728082919293CC00097D1F1CA0CD6
:100F5000DB1C39014A010A2C04C0969487947794CB
:100F600067940A94D2F781E090E0A0E0B0E00A2C08
:100F700004C0880F991FAA1FBB1F0A94D2F70197BC
:100F8000A109B10982239323A423B52321E030E0F2
:100F900040E050E00097A105B10519F420E030E0F1
:100FA000A90126293729482959290BC06C147D0429
:100FB00024F4EE24FF24870104C0630120E030E024
:100FC000A9018181FB019181891709F445C088231A
:100FD00049F0D801C701821B930BA40BB50B9C01F0
:100FE000AD0104C02E193F09400B510B57FD04C041
:100FF0001982DB82CA820BC081E08983DB82CA82CC
:1010000050954095309521953F4F4F4F5F4F2C8322
:101010003D834E835F830DC0880F991FAA1FBB1F9E
:101020008C839D83AE83BF838A819B8101979B8341
:101030008A838C819D81AE81BF819C01AD0121504D
:101040003040404050402F3FEFEF3E07EFEF4E075C
:10105000EFE35E0708F30BC08983DB82CA822E0DA3
:101060003F1D401F511F2C833D834E835F8383E0D0
:1010700088832C813D814E815F8157FF1DC0DA013D
:10108000C90181709070A070B070569547953795E2
:101090002795822B932BA42BB52B8C839D83AE831A
:1010A000BF838A819B8101969B838A8305C0E1E887
:1010B000F1E003C0FB0101C0FE01CF01CDB7DEB7F7
:1010C000EEE00C94CB0DA0E2B0E0E9E6F8E00C9481
:1010D000B70D69837A838B839C832D833E834F83F3
:1010E000588789E0E82EF12CEC0EFD1ECE0101960A
:1010F000B7010E94850C8E010F5E1F4FCE01059631
:10110000B8010E94850CC701B801AE01475E5F4F70
:101110000E9419070E94B70BA096E6E00C94D30D2D
:10112000A0E2B0E0E6E9F8E00C94B70D69837A83B9
:101130008B839C832D833E834F8358878E01075F6B
:101140001F4FCE010196B8010E94850C91E1E92E56
:10115000F12CEC0EFD1ECE010596B7010E94850C08
:101160008A8991E089278A8BC801B701AE01475E61
:101170005F4F0E9419070E94B70BA096E6E00C94FF
:10118000D30DA0E2B0E0E7ECF8E00C94AB0D69837E
:101190007A838B839C832D833E834F835887CE0134
:1011A0000196BE01675F7F4F0E94850CCE010596B8
:1011B000BE016F5E7F4F0E94850C9985923078F05A
:1011C00089898230C0F0943019F4823041F4CBC068
:1011D000843019F4923079F4C6C0923051F481E031
:1011E0002A859A89291709F480E08A87CE01099611
:1011F000BCC0823051F481E02A859A89291709F40C
:1012000080E08A8BCE014196B0C06D847E848F844D
:101210009888ED88FE880F89188DE0E2F0E080E084
:1012200090E0DC01AA24BB24650120E030E0A901A4
:10123000B3016170707061157105D1F02E0D3F1D05
:10124000401F511F15012601280E391E4A1E5B1E24
:1012500081E090E0A0E0B0E02E153F054007510787
:1012600018F080E090E0DC01820D931DA41DB51DF7
:10127000AA0CBB1CCC1CDD1C17FF09C061E0262E8C
:10128000312C412C512CA228B328C428D5283197C1
:1012900049F0EE0CFF1C001F111F96948794779461
:1012A0006794C6CF6B897C89EB85FC856E0F7F1FA9
:1012B0006E5F7F4F7C8F6B8F61E0EA857A89E717DD
:1012C00009F460E06A8F6B8D7C8D10C0FC01E170C9
:1012D000F070309729F056954795379527955068C7
:1012E000B695A795979587956F5F7F4FB7FDEECF22
:1012F0000CC0880F991FAA1FBB1F57FD8160220FCA
:10130000331F441F551F615070408030E0E09E073E
:10131000E0E0AE07E0E4BE0760F36B8F7C8F6FE721
:10132000E62EF12C012D112DE822F9220A231B2390
:1013300060E4E616F1040105110561F487FD0AC0B9
:10134000211531054105510529F0805C9F4FAF4FB4
:10135000BF4F80788D8F9E8FAF8FB8A383E0898F2A
:10136000CE01499602C081E891E00E94B70BA09699
:10137000E2E10C94C70DA8E1B0E0E1ECF9E00C94D7
:10138000B70D69837A838B839C832D833E834F8340
:1013900058878E01075F1F4FCE010196B8010E944A
:1013A000850C81E1E82EF12CEC0EFD1ECE01059698
:1013B000B7010E94850C8985823040F0898982308E
:1013C00028F0C801B7010E94EE0C01C081E06896C8
:1013D000E6E00C94D30DA8E1B0E0E1EFF9E00C9465
:1013E000B70D69837A838B839C832D833E834F83E0
:1013F00058878E01075F1F4FCE010196B8010E94EA
:10140000850C81E1E82EF12CEC0EFD1ECE01059637
:10141000B7010E94850C8985823040F0898982302D
:1014200028F0C801B7010E94EE0C01C08FEF68964A
:10143000E6E00C94D30DA8E1B0E0E1E2FAE00C9410
:10144000B70D69837A838B839C832D833E834F837F
:1014500058878E01075F1F4FCE010196B8010E9489
:10146000850C81E1E82EF12CEC0EFD1ECE010596D7
:10147000B7010E94850C8985823040F089898230CD
:1014800028F0C801B7010E94EE0C01C08FEF6896EA
:10149000E6E00C94D30DA8E1B0E0E1E5FAE00C94AD
:1014A000B70D69837A838B839C832D833E834F831F
:1014B00058878E01075F1F4FCE010196B8010E9429
:1014C000850C81E1E82EF12CEC0EFD1ECE01059677
:1014D000B7010E94850C8985823040F0898982306D
:1014E00028F0C801B7010E94EE0C01C081E06896A7
:1014F000E6E00C94D30DA8E1B0E0E1E8FAE00C944A
:10150000B70D69837A838B839C832D833E834F83BE
:1015100058878E01075F1F4FCE010196B8010E94C8
:10152000850C81E1E82EF12CEC0EFD1ECE01059616
:10153000B7010E94850C8985823040F0898982300C
:1015400028F0C801B7010E94EE0C01C081E0689646
:10155000E6E00C94D30DA8E0B0E0E1EBFAE00C94E7
:10156000B70D7B018C0183E08983D801C7018827EF
:10157000B7FD83959927AA27BB27282F8A83E114D3
:10158000F1040105110519F482E0898337C08EE169
:1015900090E09C838B83222389F080E0E81680E032
:1015A000F80680E0080780E8180769F110950095B3
:1015B000F094E094E11CF11C011D111DED82FE82EE
:1015C0000F831887C801B7010E945D0B9C01215051
:1015D00030401216130694F4022E04C0EE0CFF1CC9
:1015E000001F111F0A94D2F7ED82FE820F83188725
:1015F0008EE190E0821B930B9C838B83CE0101963E
:101600000E94B70B04C060E070E080E09FEC289679
:10161000E6E00C94D30DACE0B0E0E1E1FBE00C942B
:10162000BB0D69837A838B839C83CE010196BE01B7
:101630006B5F7F4F0E94850C8D81823081F18230FB
:1016400070F1843021F48E81882369F10AC02F81E2
:10165000388537FD24C06E812F3131053CF066237B
:1016600011F120E030E040E050E821C08EE190E050
:10167000821B930B29853A854B855C8504C0569562
:101680004795379527958A95D2F7662381F050952F
:101690004095309521953F4F4F4F5F4F08C020E058
:1016A00030E0A90104C02FEF3FEF4FEF5FE7B90132
:1016B000CA012C96E2E00C94D70DAF92BF92CF9264
:1016C000DF92EF92FF920F931F937B018C0180E0DA
:1016D000E81680E0F80681E0080780E0180758F473
:1016E000EFEFEE16F1040105110509F090F480E02A
:1016F00090E0DC0117C0F0E0EF16F0E0FF06F0E04C
:101700000F07F1E01F0750F480E190E0A0E0B0E0A7
:1017100009C088E090E0A0E0B0E004C088E190E07B
:10172000A0E0B0E020E230E040E050E0281B390BC0
:101730004A0B5B0B5701680104C0D694C794B79459
:10174000A7948A95D2F7D601C50187579E4FFC0111
:101750008081281B310941095109C9011F910F914D
:10176000FF90EF90DF90CF90BF90AF900895EF92F1
:10177000FF920F931F93CF93DF93FC012481358158
:101780004681578161818081823020F44061EFEF92
:10179000F0E0A3C0843009F49BC0823009F492C009
:1017A000211531054105510509F48FC00280F381EF
:1017B000E02D8FEFE238F8070CF05AC0C2E8DFEFF7
:1017C000CE1BDF0BCA31D1056CF579018A010C2ED5
:1017D00004C016950795F794E7940A94D2F781E030
:1017E00090E0A0E0B0E00C2E04C0880F991FAA1F63
:1017F000BB1F0A94D2F70197A109B1098223932351
:10180000A423B52321E030E040E050E00097A1059B
:10181000B10519F420E030E0A9012E293F29402B21
:10182000512B03C020E030E0A901DA01C9018F7714
:101830009070A070B07080349105A105B10539F4A5
:1018400027FF09C0205C3F4F4F4F5F4F04C0215C12
:101850003F4F4F4F5F4FE1E0F0E0203080E038072E
:1018600080E0480780E4580728F5E0E0F0E022C077
:10187000E038F1056CF5E158FF4FDA01C9018F77C7
:101880009070A070B07080349105A105B10539F455
:1018900027FF09C0205C3F4F4F4F5F4F04C0215CC2
:1018A0003F4F4F4F5F4F57FF05C0569547953795B0
:1018B0002795319687E056954795379527958A95D0
:1018C000D1F70BC0E0E0F0E005C0E0E0F0E005C0DB
:1018D000EFEFF0E020E030E0A9018E2F8795882718
:1018E0008795942F9F77679566276795E695E22EF3
:1018F000A92FA82BFE2FF62B622F732F8A2F9F2F35
:10190000CDB7DEB7E6E00C94D30DDC01FB012C91E2
:1019100011963C91119712968C911297482F4F7700
:1019200050E0982F991F9927991F13966C91139740
:10193000862F880F892B90E0661F6627661F6183BC
:10194000009739F5211531054105510511F482E063
:1019500029C082E89FEF9383828367E0220F331FC1
:10196000441F551F6A95D1F783E0808309C0220F79
:10197000331F441F551F8281938101979383828374
:10198000203080E0380780E0480780E4580778F38B
:1019900020C08F3F910579F421153105410551058E
:1019A00019F484E08083089544FF03C081E08083BC
:1019B00010C010820EC08F5790409383828383E0C3
:1019C000808387E0220F331F441F551F8A95D1F76C
:1019D000506424833583468357830895FC01DB01DB
:1019E0009081923008F449C08C91823008F445C04F
:1019F000943051F461818430B1F511962C91119796
:101A000030E0261B310941C0843021F0923041F48E
:101A10008230B1F111968C9111978823A1F12DC0DC
:101A20006181823001F111968C9111976817D9F478
:101A30002281338112968D919C911397821793077F
:101A400094F028173907BCF02481358146815781ED
:101A500014968D919D910D90BC91A02D82179307A6
:101A6000A407B50718F4662341F00DC028173907FD
:101A70004A075B0728F4662331F021E030E005C017
:101A800020E030E002C02FEF3FEFC901089597FB3F
:101A9000092E07260AD077FD04D027D006D00020D3
:101AA0001AF4709561957F4F0895F6F7909581959A
:101AB0009F4F089597FB092E05260ED057FD04D0A1
:101AC00028D00AD0001C38F45095409530952195C7
:101AD0003F4F4F4F5F4F0895F6F790958095709563
:101AE00061957F4F8F4F9F4F0895AA1BBB1B51E1FC
:101AF00007C0AA1FBB1FA617B70710F0A61BB70B7E
:101B0000881F991F5A95A9F780959095BC01CD0122
:101B10000895A1E21A2EAA1BBB1BFD010DC0AA1F2E
:101B2000BB1FEE1FFF1FA217B307E407F50720F046
:101B3000A21BB30BE40BF50B661F771F881F991FC1
:101B40001A9469F760957095809590959B01AC010A
:101B5000BD01CF0108952F923F924F925F926F92F5
:101B60007F928F929F92AF92BF92CF92DF92EF922D
:101B7000FF920F931F93CF93DF93CDB7DEB7CA1BAE
:101B8000DB0B0FB6F894DEBF0FBECDBF09942A88D9
:101B9000398848885F846E847D848C849B84AA8481
:101BA000B984C884DF80EE80FD800C811B81AA810E
:101BB000B981CE0FD11D0FB6F894DEBF0FBECDBFD9
:101BC000ED010895AEE0B0E0E8EEFDE00C94B90D53
:101BD0000D891E8986E08C831A8309838FEF9FE726
:101BE0009E838D839E01275E3F4FCE0101966F89B4
:101BF000788DA9010E94050EEF81F885E00FF11F95
:101C000010822E96E4E00C94D50DACE0B0E0EBE051
:101C1000FEE00C94AB0D6C011B018A01FC011782E4
:101C20001682838181FFD1C12E010894411C511C71
:101C3000F6019381F10193FD859193FF81911F013D
:101C4000882309F4BEC1853239F493FD859193FF51
:101C500081911F01853229F490E0B6010E940210A3
:101C6000E7CFEE24FF2420E02032B0F48B3269F07D
:101C70008C3228F4803251F0833271F40BC08D32F3
:101C800039F0803349F421602CC02260246029C0DF
:101C9000286027C0206125C027FD2CC0382F305375
:101CA0003A3098F426FF08C08E2D880FE82EEE0CEF
:101CB000EE0CE80EE30E15C08F2D880FF82EFF0CEA
:101CC000FF0CF80EF30E20620CC08E3221F426FDBC
:101CD00078C1206406C08C3611F4206802C08836B2
:101CE00049F4F10193FD859193FF81911F018823B0
:101CF00009F0BACF982F9554933018F09052933042
:101D000028F40C5F1F4FFFE3F9830DC0833631F0D9
:101D1000833771F0833509F060C022C0F8018081FB
:101D200089830E5F1F4F420171E0A72EB12C16C0B0
:101D300062E0662E712C600E711EF8018080918029
:101D400026FF03C06E2D70E002C06FEF7FEFC4016D
:101D50002C870E94F70F5C0183012C852F7717C019
:101D600052E0652E712C600E711EF801808091800A
:101D700026FF03C06E2D70E002C06FEF7FEFC4013D
:101D80002C870E94EC0F5C012C852068830123FDC9
:101D900020C008C080E290E0B6012C870E940210AB
:101DA000FA942C858F2D90E0A816B90698F311C0EF
:101DB000F40127FD859127FF81914F0190E0B60145
:101DC0002C870E9402102C85F110FA940894A10827
:101DD000B108A114B10461F7F1C0843611F089365D
:101DE00049F527FF08C0F8016081718182819381E4
:101DF0000C5F1F4F09C0F80160817181882777FD52
:101E00008095982F0E5F1F4F4FE6B42EB22297FF9A
:101E100009C090958095709561957F4F8F4F9F4F2A
:101E2000F0E8BF2AA2012AE030E00E942E10782EAE
:101E3000741845C0853731F43FEEB32EB2222AE044
:101E400030E025C099EFB92EB2228F36C1F080372D
:101E500020F4883509F0B5C00DC0803721F08837EF
:101E600009F0AFC002C020E1B22AB4FE0BC084E08A
:101E7000B82A08C0B4FE09C0E6E0BE2A06C028E0C1
:101E800030E005C020E130E002C020E132E0B7FEE2
:101E900008C0F80160817181828193810C5F1F4FBE
:101EA00007C0F8016081718180E090E00E5F1F4FF4
:101EB000A2010E942E10782E7418FFE7BF22B6FEF2
:101EC0000BC02EEFB2227E1438F4B4FE07C0B2FC71
:101ED00005C08FEEB82202C0A72C01C0AE2C8B2DFE
:101EE00090E0B4FE0DC0FE01E70DF11D208120330E
:101EF00019F4E9EEBE2209C0A394B2FE06C004C0E4
:101F000086789070009709F0A3948B2C9924B3FCE9
:101F100014C0B0FE0FC0AF1428F4E72CEF0CEA1881
:101F2000AF2C08C0E72C06C080E290E0B6010E940A
:101F30000210A394AF14C0F304C0AF1410F4FA1845
:101F400001C0FF2484FE0FC080E390E0B6010E9430
:101F5000021082FE1FC081FE03C088E590E010C021
:101F600088E790E00DC0C40186789070009791F0EA
:101F700081FC02C080E201C08BE2B7FC8DE290E000
:101F8000B6010E94021006C080E390E0B6010E94F4
:101F90000210EA947E14C0F37A94F201E70DF11D69
:101FA000808190E0B6010E9402107720A9F706C058
:101FB00080E290E0B6010E940210FA94FF20C1F77F
:101FC00037CEF6012681378102C02FEF3FEFC901DE
:101FD0002C96E2E10C94C70DFC0105906150704015
:101FE0000110D8F7809590958E0F9F1F0895FC01E2
:101FF0006150704001900110D8F7809590958E0F38
:102000009F1F08950F931F93CF93DF938C01EB01D4
:102010008B8181FF1BC082FF0DC02E813F818C818F
:102020009D812817390764F4E881F9810193F983C8
:10203000E88306C0E885F985802F0995009731F47B
:102040008E819F8101969F838E8302C00FEF1FEFC9
:10205000C801DF91CF911F910F910895FA01AA272E
:10206000283051F1203181F1E8946F936E7F6E5FDB
:102070007F4F8F4F9F4FAF4FB1E03ED0B4E03CD089
:10208000670F781F891F9A1FA11D680F791F8A1F6C
:10209000911DA11D6A0F711D811D911DA11D20D0D3
:1020A00009F468943F912AE0269F11243019305D8D
:1020B0003193DEF6CF010895462F4770405D41937E
:1020C000B3E00FD0C9F7F6CF462F4F70405D4A33CB
:1020D00018F0495D31FD4052419302D0A9F7EACF93
:1020E000B4E0A6959795879577956795BA95C9F7C2
:1020F00000976105710508959B01AC010A2E0694B5
:102100005795479537952795BA95C9F7620F731F6D
:0C211000841F951FA01D0895F894FFCFB8
:10211C0025642E256420202020002D25642E256486
:10212C002020202000000034420000803F000034BA
:10213C00420000B0400000003F0101014355523AFB
:10214C002020202020202020202020200053455417
:10215C003A20202020202020202020202000436F07
:10216C0072726563742E3A202020202020200042B9
:10217C004C4F4242594059414E4445582E525500FD
:10218C0042454E44455220312E3020202020202024
:10219C000000000000000000000001020203030325
:1021AC0003040404040404040405050505050505DD
:1021BC0005050505050505050506060606060606BC
:1021CC0006060606060606060606060606060606A3
:1021DC00060606060606060606070707070707078C
:1021EC000707070707070707070707070707070773
:1021FC000707070707070707070707070707070763
:10220C000707070707070707070707070707070752
:10221C00070707070707070707080808080808083B
:10222C000808080808080808080808080808080822
:10223C000808080808080808080808080808080812
:10224C000808080808080808080808080808080802
:10225C0008080808080808080808080808080808F2
:10226C0008080808080808080808080808080808E2
:10227C0008080808080808080808080808080808D2
:10228C0008080808080808080808080808080808C2
:0A229C0008080808080808080800F0
:00000001FF
